S011000054696D6572546573742E7372656372
S11300000C9434000C943E000C943E000C943E007E
S11300100C943E000C943E000C943E000C943E0064
S11300200C943E000C943E000C943E000C943E0054
S11300300C943E000C943E000C9440000C943E0042
S11300400C943E000C943E000C943E000C943E0034
S11300500C943E000C943E000C943E000C943E0024
S11300600C943E000C943E0011241FBECFEFD8E048
S1130070DEBFCDBF0E945C000C9462000C940000B3
S11300801F920F920FB60F9211248F9381E083B9C0
S11300908F910F900FBE0F901F90189584B58260BA
S11300A084BD85B5856085BDEEE6F0E08081826023
S11300B0808382EC87BD08958FE384B90E944E004B
S10B00C07894FFCFF894FFCF00
S9030000FC
