S01000004D6567616D696E642E73726563F2
S11300000C9434000C9451000C9451000C94510045
S11300100C9451000C9451000C9451000C94510018
S11300200C9451000C9451000C9451000C94510008
S11300300C9451000C9451000C9451000C945100F8
S11300400C9451000C9451000C9463000C948300A4
S11300500C9451000C9451000C9451000C945100D8
S11300600C9451000C94510011241FBECFEFD8E022
S1130070DEBFCDBF11E0A0E0B1E0E0EBF2E002C0F2
S113008005900D92AE32B107D9F721E0AEE2B1E0AE
S113009001C01D92A237B207E1F70E941B010C9424
S11300A056010C9400009093C5008093C40088E925
S11300B08093C100109250011092510110922E01B0
S11300C010922F0108951F920F920FB60F921124D0
S11300D08F939F93EF93FF938091C600E09151011A
S11300E0EF5FEF71E093510190915001F0E0EE5A0F
S11300F0FE4F8083FF91EF919F918F910F900FBEE0
S11301000F901F9018951F920F920FB60F92112403
S11301108F939F93EF93FF9390912F0180912E01E2
S1130120981769F0E0912E01EF5FEF71E0932E01D3
S1130130F0E0E05DFE4F80818093C60005C0E1ECF5
S1130140F0E080818F7D8083FF91EF919F918F916B
S11301500F900FBE0F901F901895909151018091B0
S113016050019817D1F3E0915001EF5FEF71E093E4
S11301705001F0E0EE5AFE4F8081089520912F0146
S11301802F5F2F7190912E012917E1F3E22FF0E0F8
S1130190E05DFE4F808320932F01E1ECF0E080814D
S11301A08062808308959091510180915001981745
S11301B099F09091510180915001891730F4809108
S11301C0510190915001891B0895809151019091A2
S11301D05001805E891B089580E00895EF92FF929C
S11301E00F931F93CF937C01C0E001C0CF5F8701C1
S11301F00C0F111D0E94AD00F80180838A30B1F705
S11302008083CF5FF701EC0FF11D1082CF911F9116
S11302100F91FF90EF900895CF93DF93EC018881C5
S1130220882331F021960E94BE0089918111FBCF71
S1130230DF91CF910895CF93DF93CDB7DEB76E975B
S11302400FB6F894DEBF0FBECDBF87E690E00E94E4
S1130250530078942FEF83ED90E321508040904039
S1130260E1F700C000000E94D300882399F3CE0177
S113027001960E94EE0065E271E0CE0101960E94B3
S11302804D01892B29F480E091E00E940C01E2CF1A
S113029081E191E00E940C01DDCFFB01DC018D9135
S11302A0019080190110D9F3990B0895F894FFCFA8
S11302B0416C77696E20526F646577696A6B0D0AC9
S11302C000506C656173652074727920616761699F
S11102D06E850D0A003633353635330D0A00BF
S9030000FC
