:100000000C943C000C9459000C9459000C942B0255
:100010000C9459000C9459000C9459000C945900FC
:100020000C9459000C9459000C9459000C94130131
:100030000C9459000C9459000C9473000C945900C2
:100040000C9459000C9459000C946E010C948E0180
:100050000C9459000C9459000C9459000C945900BC
:100060000C9459000C9459007B02C002FB020A0355
:1000700062038803EA03070411241FBECFEFD8E010
:10008000DEBFCDBF13E0A0E0B1E0E0ECFBE002C0DA
:1000900005900D92A036B107D9F723E0A0E6B3E0B2
:1000A00001C01D92A63DB207E1F70E9456020C94D2
:1000B000DE050C940000CF93DF9300D0CDB7DEB700
:1000C0000E94360566E070E00E94BC044AE0BE0172
:1000D0006F5F7F4F01960E94460589810F900F90B8
:1000E000DF91CF9108951F920F920FB60F921124B6
:1000F0008F939F93809161038F5F809361039091B1
:1001000060039F5F90936003823048F01092610318
:1001100080916F03882319F083B1806283B9809145
:100120006003883008F456C01092600380916A031F
:100130008130A1F480916203813081F48091660363
:10014000811107C085B1816085B981E08093660324
:1001500005C085B18E7F85B91092660380916B03CF
:10016000813081F480916703811107C085B182607D
:1001700085B981E08093670305C085B18D7F85B91E
:100180001092670380916C03813081F48091680341
:10019000811107C085B1846085B981E080936803CF
:1001A00005C085B18B7F85B91092680380916D037E
:1001B000813081F480916903811107C085B1886025
:1001C00085B981E08093690305C085B1877F85B9D2
:1001D000109269039F918F910F900FBE0F901F9007
:1001E000189584B5826084BD85B5856085BDEEE6D1
:1001F000F0E080818260808382EC87BD0895E1E831
:10020000F0E0808188608083808184608083EFE675
:10021000F0E080818260808381E19AE79093890099
:100220008093880008951F920F920FB60F921124A9
:100230008F9380916E03882319F083B1806283B914
:100240008F910F900FBE0F901F9018951092700312
:1002500010926F0310926E03E1E7F3E011821082B7
:10026000EAE6F3E0108211821282138285B18F7D5B
:1002700085B985B18F7E85B985B1877F85B985B10F
:100280008B7F85B985B18D7F85B985B18E7F85B925
:1002900008959093C5008093C40088E98093C100BD
:1002A00010929503109296031092730310927403A8
:1002B000089587E690E00E9449018FE384B9EBE658
:1002C000F0E0808180688083E8E6F0E080818160F2
:1002D00080830E94FF000E94F10008951F920F92F8
:1002E0000FB60F9211248F939F93EF93FF938091FA
:1002F000C600E0919603EF5FEF71E0939603909153
:100300009503F0E0E956FC4F8083FF91EF919F91B8
:100310008F910F900FBE0F901F9018951F920F9204
:100320000FB60F9211248F939F93EF93FF939091A9
:10033000740380917303981769F0E0917303EF5F82
:10034000EF71E0937303F0E0EB58FC4F80818093F2
:10035000C60005C0E1ECF0E080818F7D8083FF91D5
:10036000EF919F918F910F900FBE0F901F90189556
:100370000FC080916303909164030196909364038E
:1003800080936303019621F4109264031092630337
:100390009091960380919503981759F3E0919503F6
:1003A000EF5FEF71E0939503F0E0E956FC4F808139
:1003B0000895209174032F5F2F7190917303291773
:1003C000E1F3E22FF0E0EB58FC4F808320937403BD
:1003D000E1ECF0E08081806280830895EF92FF92EB
:1003E0000F931F93CF937C01C0E001C0CF5F8701C3
:1003F0000C0F111D0E94B801F80180838A30B1F7FB
:10040000CF5F8083F701EC0FF11D1082CF911F9118
:100410000F91FF90EF900895CF93DF93EC012FEFB2
:1004200080E792E0215080409040E1F700C000005A
:1004300003C021960E94D90188818111FACF2FEF44
:1004400080E792E0215080409040E1F700C000003A
:10045000DF91CF9108951F920F920FB60F92112442
:100460002F933F934F935F936F937F938F939F93BC
:10047000AF93BF93EF93FF931F9907C081E08093E1
:10048000650389E091E00E940C02FF91EF91BF911A
:10049000AF919F918F917F916F915F914F913F911C
:1004A0002F910F900FBE0F901F901895CF93DF9351
:1004B000CDB7DEB728970FB6F894DEBF0FBECDBF1D
:1004C0000E94590178941092D50380916503882386
:1004D00029F081E08093D50310926503E091D50364
:1004E0008E2F90E08830910508F09EC1FC01EC5CF5
:1004F000FF4F0C94D00483E291E00E940C028CE444
:1005000091E00E940C020E94B8018A30E1F78091CC
:100510006303909164030E943B0581E891E00E948F
:100520000C022FEF89E698E1215080409040E1F7DE
:1005300000C000008CE891E00E940C024AE067EBEA
:1005400073E084E090E00E94460587EB93E00E9410
:100550000C028FEB91E00E940C024AE067EB73E023
:100560008CE090E00E94460587EB93E00E940C022D
:1005700088EE91E00E940C0281E08093D503A5CF24
:100580000E94260110E00CC0E12EF12C0E945B00BD
:10059000E1E0F0E0EC0FFD1FEE0DFF1D80831F5F1B
:1005A000143090F3CE0101960E9422048091040140
:1005B000811110C01CC0822F90E0E1E0F0E0EC0F50
:1005C000FD1FE80FF91F3081FC01E954FC4F308317
:1005D0002F5F01C020E0243070F31092BC0387EB42
:1005E00093E00E940C0281E192E00E940C0282E002
:1005F0008093D5036ACF809170038C3020F087E020
:100600008093D50362CF93E09093D5038F5F80935F
:1006100070035BCF87E292E00E940C02809170032E
:100620004AE067EB73E090E00E94460587EB93E0B9
:100630000E940C0284E292E00E940C02E1E7F3E0E7
:100640001182108226C08EE392E00E940C02EFEF2E
:10065000F1EE24E0E150F0402040E1F700C000005E
:1006600087EB93E00E94EE0180E010C0E82FF0E0FD
:10067000E954FC4F90819153963018F48F5F10E04D
:1006800005C089E692E00E940C0203C0843070F33A
:1006900001C011E01111D7CF20E00EC0822F90E0F1
:1006A000FC01E954FC4F3081E5E0F0E0EC0FFD1F68
:1006B000E80FF91F30832F5F243080F384E08093AC
:1006C000D50303CF10926203EAE6F3E010821182B1
:1006D0001282138285B18E7F85B985B18D7F85B9F0
:1006E00085B18B7F85B985B1877F85B9CE010596A8
:1006F0000E9433048093710390937203843020F03E
:1007000086E08093D503E1CE85E08093D503DDCEEE
:100710008BE992E00E940C0201E713E0F80180816E
:100720004AE067EB73E090E00E94460587EB93E0B8
:100730000E940C028DEA92E00E940C028BE992E08A
:100740000E940C02F80181814AE067EB73E090E0BF
:100750000E94460587EB93E00E940C0280EE92E037
:100760000E940C0280E02DC0909171038917C0F4A3
:10077000813051F028F0823059F0833069F020C088
:1007800095B1916095B91CC095B1926095B918C0AA
:1007900095B1946095B914C095B1986095B910C0A1
:1007A0002091720330E0482F50E0BA01691B7109B3
:1007B000621773072CF4FA01E659FC4F91E090831D
:1007C0008F5F843088F281E08093620382E08093BF
:1007D000D5037BCEEAE6F3E0108211821282138207
:1007E00085B18E7F85B985B18D7F85B985B18B7FC8
:1007F00085B985B1877F85B981E080936E038BEFE2
:1008000092E00E940C0288E08093D5035ECE81E0E6
:1008100080936F038DE293E00E940C0288E0809346
:10082000D50353CE0E94B801809165038823D1F38C
:10083000FFEF29E688E1F15020408040E1F700C059
:10084000000043CEBC0190E00BC0292F30E0FB013B
:10085000E20FF31F4081F901EB5FFE4F40839F5F82
:10086000943098F30895CF93DF93CDB7DEB72897F0
:100870000FB6F894DEBF0FBECDBFB0E0A0E040E001
:1008800019C0242F30E0F901EB5FFE4F5081E1E009
:10089000F0E0EC0FFD1FE20FF31F5083FC01E20FAD
:1008A000F31F5081E5E0F0E0EC0FFD1FE20FF31FB6
:1008B00050834F5F443028F320E020C0422F50E0A7
:1008C000FC01E40FF51F6081E1E0F0E0EC0FFD1F9B
:1008D000E40FF51F3081631310C0E1E0F0E0EC0F8E
:1008E000FD1FE40FF51F3FEF3083E5E0F0E0EC0F74
:1008F000FD1FE40FF51F3083BF5F2F5F2430F0F240
:1009000040E02DC0E5E0F0E0EC0FFD1FE40FF11D2D
:1009100020812F3F01F522C0622F70E0E1E0F0E07E
:10092000EC0FFD1FE60FF71F30813F3F91F0FC01F8
:10093000E40FF11D508135130CC0421751F0E1E076
:10094000F0E0EC0FFD1FE60FF71F2FEF2083AF5FE6
:1009500005C02F5F01C020E02430F0F24F5F44302B
:1009600088F28B2F9A2F28960FB6F894DEBF0FBE11
:10097000CDBFDF91CF91089597FB072E16F4009419
:1009800007D077FD09D00E94D60407FC05D03EF4BD
:10099000909581959F4F0895709561957F4F08952B
:1009A000EE0FFF1F0590F491E02D0994AA1BBB1BCD
:1009B00051E107C0AA1FBB1FA617B70710F0A61B5F
:1009C000B70B881F991F5A95A9F780959095BC0180
:1009D000CD0108958F929F92AF92BF92CF92DF92F6
:1009E000EF92FF92CF93DF93EC01688179818A8146
:1009F0009B81611571058105910521F464E279ED12
:100A00008BE597E02DE133EF41E050E00E947B055C
:100A100049015A019B01AC01A7EAB1E40E949A0581
:100A20006B017C01ACEEB4EFA50194010E94A80516
:100A3000DC01CB018C0D9D1DAE1DBF1DB7FF03C09A
:100A40000197A109B04888839983AA83BB839F77C4
:100A5000DF91CF91FF90EF90DF90CF90BF90AF905C
:100A60009F908F9008950E94EA04089580E091E09D
:100A70000E94EA040895A0E0B0E080930001909302
:100A80000101A0930201B09303010895BB274A30EE
:100A900031F4992322F4BDE2909581959F4F0C94F7
:100AA0005205BB27FB015527AA27880F991FAA1FAC
:100AB000A41710F0A41B83955051B9F7A05DAA3379
:100AC00008F0A95DA193009779F7B111B193119244
:100AD000CB010C946B05DC01FC01672F719177232E
:100AE000E1F7329704C07C916D9370836291AE17E9
:100AF000BF07C8F30895052E97FB1EF400940E94CB
:100B0000920557FD07D00E94AD0507FC03D04EF4B7
:100B10000C94920550954095309521953F4F4F4F3D
:100B20005F4F089590958095709561957F4F8F4F99
:100B30009F4F08950E94CF05A59F900DB49F900DE3
:100B4000A49F800D911D11240895B7FF0C949A0560
:100B50000E949A05821B930B0895A1E21A2EAA1BEC
:100B6000BB1BFD010DC0AA1FBB1FEE1FFF1FA2175D
:100B7000B307E407F50720F0A21BB30BE40BF50B5A
:100B8000661F771F881F991F1A9469F760957095E3
:100B9000809590959B01AC01BD01CF010895A29F66
:100BA000B001B39FC001A39F700D811D1124911D41
:100BB000B29F700D811D1124911D0895F894FFCFEF
:100BC0000100000001FF0000005468652067616DAE
:100BD0006520686173206265656E20726573657457
:100BE0002E0A0057656C636F6D6520746F20746802
:100BF0006520617765736F6D652067616D65204D58
:100C000041535445524D494E44210A00596F7520B5
:100C100077696C6C2073656E6420796F75206775D9
:100C2000657373207573696E6720746865207465D9
:100C3000726D696E616C2E20547279206974210A7C
:100C400000476F6F64206A6F62210A00596F752038
:100C500077696C6C206861766520746F20677565B4
:100C600073732074686520636F72726563742063A8
:100C70006F6D62696E6174696F6E206F662000200F
:100C80006E756D62657273206265747765656E203E
:100C90003120616E6420362E0A596F752077696C99
:100CA0006C20686176652000207475726E73207404
:100CB0006F2066696E642074686520636F72726568
:100CC000637420636F6D62696E6174696F6E2E0A62
:100CD00000206973207468652073656372657420F1
:100CE000636F64652E0A00596F7520686176652010
:100CF00072656163686564207475726E2000506C63
:100D00006561736520656E74657220796F757220F8
:100D10006775657373206C696B6520746869733AD5
:100D2000202731323334270A00596F7572206775D6
:100D30006573732068617320746F2062652062653B
:100D4000747765656E203120616E6420362C2074C6
:100D5000727920616761696E2E0A00596F7520688B
:100D60006176652067756573736564200020776917
:100D700074682074686520636F7272656374206E96
:100D8000756D6265722061742074686520636F728E
:100D90007265637420706F736974696F6E2E0A00D8
:100DA00020776974682074686520636F7272656368
:100DB00074206E756D6265722E0A00596F7520572A
:100DC0004F4E212054727920616761696E206279EB
:100DD000207072657373696E672074686520726530
:100DE00073657420627574746F6E2E0A00596F7586
:100DF000206C6F73742E2054727920616761696E64
:100E0000206279207072657373696E6720746865FB
:100E100020726573657420627574746F6E2E0A009B
:00000001FF
