S01200006D61737465726D696E642E73726563DE
S11300000C943C000C9459000C9459000C94C701B6
S11300100C9459000C9459000C9459000C945900F8
S11300200C9459000C9459000C9459000C94A4009D
S11300300C9459000C9459000C9481000C945900B0
S11300400C9459000C9459000C9406010C9426014C
S11300500C9459000C9459000C9459000C945900B8
S11300600C9459000C945900170260029C02AB02D4
S11300700503520383038E0311241FBECFEFD8E080
S1130080DEBFCDBF13E0A0E0B1E0EEECFAE002C0C9
S113009005900D92AC36B107D9F723E0ACE6B3E096
S11300A001C01D92AA3DB207E1F70E94F2010C942F
S11300B065050C940000CF93DF9300D0CDB7DEB775
S11300C00E94BD0466E070E00E9443044AE0BE0161
S11300D06F5F7F4F01960E94CD0489810F900F902E
S11300E0DF91CF91089584B5826084BD85B5836026
S11300F085BDEEE6F0E080818260808382E087BD8A
S113010008951F920F920FB60F9211248F9383B10B
S1130110816083B98F910F900FBE0F901F90189537
S1130120E1E8F0E08081886080838081846080835E
S1130130EFE6F0E080818260808381E19AE790932A
S113014089008093880008951F920F920FB60F9232
S113015011248F9380917303882319F083B18062F3
S113016083B98F910F900FBE0F901F901895109226
S113017075031092740310927303EFE6F3E0108298
S113018011821282138285B18F7D85B985B18F7EEC
S113019085B985B1877F85B985B18B7F85B985B1EF
S11301A08D7F85B985B18E7F85B9089580E006C0BD
S11301B0E82FF0E0E554FC4F10828F5F8E31C0F3DE
S11301C008959093C5008093C40088E98093C1008A
S11301D01092990310929A03109277031092780365
S11301E0089587E690E00E94E1008FE384B9EBE68E
S11301F0F0E0808180688083E8E6F0E080818160BF
S113020080830E9490000E94730008951F920F92B1
S11302100FB60F9211248F939F93EF93FF938091C6
S1130220C600E0919A03EF5FEF71E0939A03909117
S11302309903F0E0E556FC4F8083FF91EF919F9185
S11302408F910F900FBE0F901F9018951F920F92D1
S11302500FB60F9211248F939F93EF93FF93909176
S1130260780380917703981769F0E0917703EF5F43
S1130270EF71E0937703F0E0E758FC4F80818093BF
S1130280C60005C0E1ECF0E080818F7D8083FF91A2
S1130290EF919F918F910F900FBE0F901F90189523
S11302A013C080916C0390916D03019690936D033C
S11302B080936C03019621F410926D0310926C03E9
S11302C080916E03811106C090919A0380919903E5
S11302D0981739F3E0919903EF5FEF71E093990375
S11302E0F0E0E556FC4F80810895209178032F5F5C
S11302F02F71909177032917E1F3E22FF0E0E7588B
S1130300FC4F808320937803E1ECF0E080818062ED
S113031080830895EF92FF920F931F93CF937C01F4
S1130320C0E001C0CF5F87010C0F111D0E94500176
S1130330F80180838A30B1F7CF5F8083F701EC0F37
S1130340F11D1082CF911F910F91FF90EF900895AE
S1130350CF93DF93EC012FEF80E792E021508040B0
S11303609040E1F700C0000003C021960E9475018F
S113037088818111FACF2FEF80E792E021508040ED
S11303809040E1F700C00000DF91CF9108951F92E3
S11303900F920FB60F9211242F933F934F935F93B5
S11303A06F937F938F939F93AF93BF93EF93FF9339
S11303B01F9907C081E080936E0388E091E00E945A
S11303C0A801FF91EF91BF91AF919F918F917F9180
S11303D06F915F914F913F912F910F900FBE0F90AE
S11303E01F901895CF93DF93CDB7DEB728970FB63C
S11303F0F894DEBF0FBECDBF0E94F1007894109236
S1130400D90380916E03882329F081E08093D90376
S113041010926E03E091D9038E2F90E088309105FD
S113042008F089C1FC01EC5CFF4F0C94570483E293
S113043091E00E94A8018DE491E00E94A8010E942D
S113044050018A30E1F780916C0390916D030E9412
S1130450C20483E891E00E94A8012FEF89E698E1A5
S1130460215080409040E1F700C000008FE891E007
S11304700E94A8010E94D6004AE06BEB73E084E07E
S113048090E00E94CD048BEB93E00E94A80182ECE3
S113049091E00E94A8010E94D6004AE06BEB73E051
S11304A08CE090E00E94CD048BEB93E00E94A801C5
S11304B08BEE91E00E94A80181E08093D903A1CF43
S11304C00E94B70010E00CC0C12ED12C0E945B002A
S11304D0E1E0F0E0EC0FFD1FEC0DFD1D80831F5FDC
S11304E0143090F3CE0101960E94A9038091760303
S11304F08823F1F00E94D60020E00EC0822F90E005
S1130500E1E0F0E0EC0FFD1FE80FF91F3081FC0182
S1130510E554FC4F30832F5F243080F31092C003E6
S11305208BEB93E00E94A80185E192E00E94A80170
S113053082E08093D90365CF809175038C3020F0DD
S113054087E08093D9035DCF93E09093D9038F5FC5
S11305508093750356CF8CE292E00E94A8010E941A
S1130560D600809175034AE06BEB73E090E00E9443
S1130570CD048BEB93E00E94A80188E292E00E94F4
S1130580A801F12C00E028C083E492E00E94A801B5
S11305902FEF81EE94E0215080409040E1F700C0BD
S11305A000000E94D6008BEB93E00E948A0180E059
S11305B010C0E82FF0E0E554FC4F90819153963041
S11305C018F48F5F10E005C08FE692E00E94A80146
S11305D003C0843070F301C011E01111D5CF20E0C5
S11305E00EC0822F90E0FC01E554FC4F3081E5E021
S11305F0F0E0EC0FFD1FE80FF91F30832F5F24306C
S113060080F384E08093D903FCCEEFE6F3E010821C
S113061011821282138285B18E7F85B985B18D7F57
S113062085B985B18B7F85B985B1877F85B9CE01C1
S113063005960E94BA03082FF92E843020F086E034
S11306408093D903DECE85E08093D903DACE801778
S1130650C0F4813051F028F0823059F0833069F0D1
S11306601FC095B1916095B91BC095B1926095B9C1
S113067017C095B1946095B913C095B1986095B9B8
S11306800FC02F2D30E0482F50E0BA01601B7109D4
S1130690621773072CF4FA01E159FC4F91E090833F
S11306A08F5F01C080E0843090F282EA92E00E9481
S11306B0A8010E94D6004AE06BEB73E0802F90E023
S11306C00E94CD048BEB93E00E94A80184EB92E09E
S11306D00E94A80182EA92E00E94A8010E94D6002A
S11306E04AE06BEB73E08F2D90E00E94CD048BEB1E
S11306F093E00E94A80188EE92E00E94A80182E0A3
S11307008093D9037ECE81E08093730384E093E0E9
S11307100E94A80188E08093D90373CE81E080937E
S1130720740387E393E00E94A80188E08093D903CF
S113073068CE0E94500180916E038823D1F32FEF7D
S113074089E698E1215080409040E1F700C0000024
S113075058CEBC0190E00BC0292F30E0FB01E20F22
S1130760F31F4081F901EC5FFE4F40839F5F94309B
S113077098F30895CF93DF93CDB7DEB728970FB6DC
S1130780F894DEBF0FBECDBFB0E0A0E040E019C0DA
S1130790242F30E0F901EC5FFE4F5081E1E0F0E0FE
S11307A0EC0FFD1FE20FF31F5083FC01E20FF31F58
S11307B05081E5E0F0E0EC0FFD1FE20FF31F5083E2
S11307C04F5F443028F320E020C0422F50E0FC016A
S11307D0E40FF51F6081E1E0F0E0EC0FFD1FE40F92
S11307E0F51F3081631310C0E1E0F0E0EC0FFD1F52
S11307F0E40FF51F3FEF3083E5E0F0E0EC0FFD1F61
S1130800E40FF51F3083BF5F2F5F2430F0F240E028
S11308102DC0E5E0F0E0EC0FFD1FE40FF11D208199
S11308202F3F01F522C0622F70E0E1E0F0E0EC0F11
S1130830FD1FE60FF71F30813F3F91F0FC01E40FED
S1130840F11D508135130CC0421751F0E1E0F0E086
S1130850EC0FFD1FE60FF71F2FEF2083AF5F05C0DE
S11308602F5F01C020E02430F0F24F5F443088F263
S11308708B2F9A2F28960FB6F894DEBF0FBECDBFEC
S1130880DF91CF91089597FB072E16F4009407D0BB
S113089077FD09D00E945D0407FC05D03EF49095D5
S11308A081959F4F0895709561957F4F0895EE0F40
S11308B0FF1F0590F491E02D0994AA1BBB1B51E185
S11308C007C0AA1FBB1FA617B70710F0A61BB70BBC
S11308D0881F991F5A95A9F780959095BC01CD0161
S11308E008958F929F92AF92BF92CF92DF92EF9230
S11308F0FF92CF93DF93EC01688179818A819B8198
S1130900611571058105910521F464E279ED8BE5AA
S113091097E02DE133EF41E050E00E9402054901E8
S11309205A019B01AC01A7EAB1E40E9421056B01C5
S11309307C01ACEEB4EFA50194010E942F05DC010B
S1130940CB018C0D9D1DAE1DBF1DB7FF03C00197CC
S1130950A109B04888839983AA83BB839F77DF91D9
S1130960CF91FF90EF90DF90CF90BF90AF909F908A
S11309708F9008950E947104089580E091E00E9490
S113098071040895A0E0B0E0809300019093010108
S1130990A0930201B09303010895BB274A3031F4B8
S11309A0992322F4BDE2909581959F4F0C94D9042C
S11309B0BB27FB015527AA27880F991FAA1FA41735
S11309C010F0A41B83955051B9F7A05DAA3308F029
S11309D0A95DA193009779F7B111B1931192CB015D
S11309E00C94F204DC01FC01672F71917723E1F789
S11309F0329704C07C916D9370836291AE17BF07E8
S1130A00C8F30895052E97FB1EF400940E9419055F
S1130A1057FD07D00E94340507FC03D04EF40C9414
S1130A20190550954095309521953F4F4F4F5F4F95
S1130A30089590958095709561957F4F8F4F9F4F46
S1130A4008950E945605A59F900DB49F900DA49FF4
S1130A50800D911D11240895B7FF0C9421050E9467
S1130A602105821B930B0895A1E21A2EAA1BBB1B1E
S1130A70FD010DC0AA1FBB1FEE1FFF1FA217B30766
S1130A80E407F50720F0A21BB30BE40BF50B661F7C
S1130A90771F881F991F1A9469F760957095809540
S1130AA090959B01AC01BD01CF010895A29FB001B7
S1130AB0B39FC001A39F700D811D1124911DB29F8E
S1110AC0700D811D1124911D0895F894FFCF2F
S1130ACE01000000FF0000005468652067616D6539
S1130ADE20686173206265656E2072657365742E7D
S1130AEE0D0A0057656C636F6D6520746F20746812
S1130AFE6520617765736F6D652067616D65204D47
S1130B0E41535445524D494E44210D0A00596F75B7
S1130B1E2077696C6C2073656E6420796F7520671D
S1130B2E75657373207573696E67207468652074B8
S1130B3E65726D696E616C2E205472792069742110
S1130B4E0D0A00476F6F64206A6F62210D0A005907
S1130B5E6F752077696C6C206861766520746F20E0
S1130B6E67756573732074686520636F727265634D
S1130B7E7420636F6D62696E6174696F6E206F6647
S1130B8E2000206E756D62657273206265747765E0
S1130B9E656E203120616E6420362E0A596F7520E1
S1130BAE77696C6C20686176652000207475726EAE
S1130BBE7320746F2066696E642074686520636F99
S1130BCE727265637420636F6D62696E6174696FAE
S1130BDE6E2E0D0A00206973207468652073656398
S1130BEE72657420636F64652E0D0A00596F75204B
S1130BFE68617665207265616368656420747572D8
S1130C0E6E2000506C6561736520656E746572208C
S1130C1E796F7572206775657373206C696B6520C7
S1130C2E746869733A202731323334270D0A005918
S1130C3E6F75722067756573732068617320746FA6
S1130C4E206265206265747765656E203120616E61
S1130C5E6420362C2074727920616761696E2E0DC2
S1130C6E0A00596F75206861766520677565737320
S1130C7E6564200020776974682074686520636F4A
S1130C8E7272656374206E756D6265722061742074
S1130C9E74686520636F727265637420706F736914
S1130CAE74696F6E2E0D0A0020776974682074685B
S1130CBE6520636F7272656374206E756D62657202
S1130CCE2E0D0A00596F7520574F4E2120547279FC
S1130CDE20616761696E2062792070726573736931
S1130CEE6E6720746865207265736574206275740E
S1130CFE746F6E2E0D0A00596F75206C6F73742EFF
S1130D0E2054727920616761696E20627920707255
S1130D1E657373696E672074686520726573657494
S10F0D2E20627574746F6E2E0D0A0000B4
S9030000FC
