S01200006D61737465726D696E642E73726563DE
S11300000C943C000C9459000C9459000C94F3018A
S11300100C9459000C9459000C9459000C945900F8
S11300200C9459000C9459000C9459000C94F2004F
S11300300C9459000C9459000C9479000C945900B8
S11300400C9459000C9459000C9446010C946601CC
S11300500C9459000C9459000C9459000C945900B8
S11300600C9459000C945900490276029802A40297
S1130070C702DD0200030B0311241FBECFEFD8E03B
S1130080DEBFCDBF13E0A0E0B1E0E2E5F9E002C0DD
S113009005900D92AC34B107D9F723E0ACE4B3E09A
S11300A001C01D92AD39B207E1F70E941E020C9403
S11300B0A7040C94000080914E0390914F030E947A
S11300C0390408950E94340466E070E00E94BA0383
S11300D08F5C089584B5826084BD85B5816085BDDB
S11300E085B5826085BD85B5846085BD82EC87BD9C
S11300F008951F920F920FB60F9211242F933F93DE
S11301008F939F9380914D038F5F80934D039091C4
S11301104C039F5F90934C0320914E0330914F0307
S11301202F5F3F4F30934F0320934E032F3F3F4F9A
S113013021F410924F0310924E03823048F0109233
S11301404D0380915603882319F083B1806283B9EB
S113015080914C03843070F110924C0380915103D0
S1130160882321F083B1816083B903C085B18E7F78
S113017085B980915103882321F083B1826083B9CA
S113018003C085B18D7F85B980915103882321F007
S113019083B1846083B903C085B18B7F85B98091B5
S11301A05103882321F083B1886083B903C085B1EA
S11301B0877F85B99F918F913F912F910F900FBEAB
S11301C00F901F901895E1E8F0E0808188608083AB
S11301D080818460808381E19AE790938900809391
S11301E0880008951F920F920FB60F9211248F93D7
S11301F080915503882319F083B1806283B98F916C
S11302000F900FBE0F901F901895109257031092E5
S1130210560310925503E1E5F3E010821182128235
S1130220138285B18F7D85B985B18F7E85B985B1FE
S1130230877F85B985B18B7F85B985B18D7F85B978
S113024008959093C5008093C40088E98093C10009
S113025010927A0310927B03109258031092590360
S113026008958FE384B9EBE6F0E0808180688083B1
S1130270E8E6F0E08081816080830E94E3000E94D0
S11302806A0087E690E00E94210108951F920F9270
S11302900FB60F9211248F939F93EF93FF93809146
S11302A0C600E0917B03EF5FEF71E0937B039091D5
S11302B07A03F0E0E458FC4F8083FF91EF919F9123
S11302C08F910F900FBE0F901F9018951F920F9251
S11302D00FB60F9211248F939F93EF93FF939091F6
S11302E0590380915803981769F0E0915803EF5F20
S11302F0EF71E0935803F0E0E65AFC4F808180935D
S1130300C60005C0E1ECF0E080818F7D8083FF9121
S1130310EF919F918F910F900FBE0F901F901895A2
S113032090917B0380917A039817D1F3E0917A033B
S1130330EF5FEF71E0937A03F0E0E458FC4F8081C3
S11303400895209159032F5F2F7190915803291715
S1130350E1F3E22FF0E0E65AFC4F80832093590347
S1130360E1ECF0E08081806280830895EF92FF9257
S11303700F931F93CF937C01C0E001C0CF5F87012F
S11303800C0F111D0E949001F80180838A30B1F78F
S1130390CF5F8083F701EC0FF11D1082CF911F9185
S11303A00F91FF90EF900895CF93DF93EC012FEF1F
S11303B080E792E0215080409040E1F700C00000C7
S11303C003C021960E94A10188818111FACF2FEFE9
S11303D080E792E0215080409040E1F700C00000A7
S11303E0DF91CF9108951F920F920FB60F921124AF
S11303F02F933F934F935F936F937F938F939F9329
S1130400AF93BF93EF93FF931F9907C081E080934D
S1130410500388E091E00E94D401FF91EF91BF91D5
S1130420AF919F918F917F916F915F914F913F9188
S11304302F910F900FBE0F901F901895CF93DF93BD
S1130440CDB7DEB7A6970FB6F894DEBF0FBECDBF0B
S11304500E943101789410929C032FEF83ED90E376
S1130460215080409040E1F700C00000809150038B
S1130470882319F081E080939C0380919C0390E091
S11304808830910508F0D2C0FC01EC5CFF4F0C945D
S1130490CE038BE291E00E94D40185E591E00E94B5
S11304A0D4010E9490010E945B008BE891E00E94BD
S11304B0D4012FEF83ED90E3215080409040E1F789
S11304C000C0000087E991E00E94D40186EE91E02B
S11304D00E94D40185EF91E00E94D40188EF91E05D
S11304E00E94D40181E080939C03C0CF0E94050147
S11304F010E00CC0E12EF12C0E946200E1E0F0E07B
S1130500EC0FFD1FEE0DFF1D80831F5F143090F371
S1130510CE0101960E942003CE0101960E94D401CF
S113052082E292E00E94D40182E080939C039ECFF9
S1130530809157038D3020F087E080939C0396CF01
S113054083E080939C0392CF89E392E00E94D401DC
S1130550809157038F5C0E94A10182EE91E00E947A
S1130560D40180E592E00E94D4012FEF89E698E15E
S1130570215080409040E1F700C00000CE01099670
S11305800E94B601CE0109960E94D401EACFE1E5AA
S1130590F3E01082118212821382CE0105960E942A
S11305A03103082FD92E843020F086E080939C03F9
S11305B05DCF85E080939C0359CF82E892E00E944E
S11305C0D401802F90E0C0960E94D40184E992E087
S11305D00E94D40182E892E00E94D4018D2D90E023
S11305E0C0960E94D40188EC92E00E94D4018091CC
S11305F057038F5F8093570382E080939C0336CF29
S113060081E08093550384EE92E00E94D40188E057
S113061080939C032BCF81E08093560387E193E082
S11306200E94D40188E080939C0320CF2FEF89E6B9
S113063098E1215080409040E1F700C0000016CFBF
S1130640BC0190E00BC0292F30E0FB01E20FF31F47
S11306504081F901EC5FFE4F40839F5F943098F333
S11306600895CF93DF93CDB7DEB728970FB6F894EC
S1130670DEBF0FBECDBFB0E0A0E040E019C0242F24
S113068030E0F901EC5FFE4F5081E1E0F0E0EC0F67
S1130690FD1FE20FF31F5083FC01E20FF31F508193
S11306A0E5E0F0E0EC0FFD1FE20FF31F50834F5F16
S11306B0443028F320E020C0422F50E0FC01E40F36
S11306C0F51F6081E1E0F0E0EC0FFD1FE40FF51F82
S11306D03081631310C0E1E0F0E0EC0FFD1FE40F84
S11306E0F51F3FEF3083E5E0F0E0EC0FFD1FE40F72
S11306F0F51F3083BF5F2F5F2430F0F240E02DC040
S1130700E5E0F0E0EC0FFD1FE40FF11D20812F3F29
S113071001F522C0622F70E0E1E0F0E0EC0FFD1F74
S1130720E60FF71F30813F3F91F0FC01E40FF11D0C
S1130730508135130CC0421751F0E1E0F0E0EC0FAA
S1130740FD1FE60FF71F2FEF2083AF5F05C02F5F5C
S113075001C020E02430F0F24F5F443088F28B2F48
S11307609A2F28960FB6F894DEBF0FBECDBFDF9147
S1130770CF91089597FB072E16F4009407D077FDC8
S113078009D00E94D40307FC05D03EF490958195CE
S11307909F4F0895709561957F4F0895EE0FFF1F49
S11307A00590F491E02D0994AA1BBB1B51E107C0ED
S11307B0AA1FBB1FA617B70710F0A61BB70B881FED
S11307C0991F5A95A9F780959095BC01CD0108957C
S11307D08F929F92AF92BF92CF92DF92EF92FF924D
S11307E0CF93DF93EC01688179818A819B816115C4
S11307F071058105910521F464E279ED8BE597E0BB
S11308002DE133EF41E050E00E94440449015A01D4
S11308109B01AC01A7EAB1E40E9463046B017C0173
S1130820ACEEB4EFA50194010E947104DC01CB018C
S11308308C0D9D1DAE1DBF1DB7FF03C00197A109FF
S1130840B04888839983AA83BB839F77DF91CF9134
S1130850FF90EF90DF90CF90BF90AF909F908F90DC
S113086008950E94E803089580E091E00E94E8035F
S11308700895A0E0B0E08093000190930101A0935B
S11308800201B09303010895052E97FB1EF4009412
S11308900E945B0457FD07D00E94760407FC03D036
S11308A04EF40C945B0450954095309521953F4F40
S11308B04F4F5F4F089590958095709561957F4F48
S11308C08F4F9F4F08950E949804A59F900DB49F49
S11308D0900DA49F800D911D11240895B7FF0C94D1
S11308E063040E946304821B930B0895A1E21A2EF1
S11308F0AA1BBB1BFD010DC0AA1FBB1FEE1FFF1FC0
S1130900A217B307E407F50720F0A21BB30BE40B0F
S1130910F50B661F771F881F991F1A9469F7609556
S11309207095809590959B01AC01BD01CF01089510
S1130930A29FB001B39FC001A39F700D811D11241C
S1130940911DB29F700D811D1124911D0895F8947D
S1050950FFCFD3
S113095201000000FF0000005468652067616D65B6
S113096220686173206265656E2072657365742EFA
S11309720D0A00202D2D2D2D2D200057656C636F3F
S11309826D6520746F2074686520617765736F6D7F
S1130992652067616D65204D41535445524D494E62
S11309A244210D0A00596F752077696C6C207365B8
S11309B26E6420796F75206775657373207573692A
S11309C26E6720746865207465726D696E616C2E41
S11309D220547279206974210D0A00476F6F6420D4
S11309E26A6F62210D0A00596F752077696C6C2059
S11309F26861766520746F20677565737320746807
S1130A026520636F727265637420636F6D62696ED1
S1130A126174696F6E206F662034206E756D626535
S1130A227273206265747765656E203120616E642D
S1130A3220362E0D0A00596F752077696C6C206878
S1130A426176652000313200207475726E732074F1
S1130A526F2066696E642074686520636F727265C4
S1130A62637420636F6D62696E6174696F6E2E0DBB
S1130A720A00206973207468652073656372657463
S1130A8220636F64652E0D0A00596F7520686176C4
S1130A92652072656163686564207475726E2000F6
S1130AA2506C6561736520656E74657220796F752B
S1130AB2722067756573732028312D3629206C697D
S1130AC26B6520746869733A202731323334270DF9
S1130AD20A00596F752068617665206775657373BE
S1130AE26564200020776974682074686520636FE8
S1130AF27272656374206E756D6265722061742012
S1130B0274686520636F727265637420706F7369B1
S1130B1274696F6E2E0D0A002077697468207468F8
S1130B226520636F7272656374206E756D6265729F
S1130B322E0D0A00596F7520574F4E212054727999
S1130B4220616761696E20627920707265737369CE
S1130B526E672074686520726573657420627574AB
S1130B62746F6E2E0D0A00596F75206C6F73742E9C
S1130B722054727920616761696E206279207072F3
S1130B82657373696E672074686520726573657432
S10F0B9220627574746F6E2E0D0A000052
S9030000FC
