:100000000C943C000C9459000C9459000C94F2018F
:100010000C9459000C9459000C9459000C945900FC
:100020000C9459000C9459000C9459000C94DA006B
:100030000C9459000C9459000C9473000C945900C2
:100040000C9459000C9459000C9435010C945501F2
:100050000C9459000C9459000C9459000C945900BC
:100060000C9459000C94590042028702C202D1023A
:1000700029034D03AC03C90311241FBECFEFD8E001
:10008000DEBFCDBF13E0A0E0B1E0E4E4FBE002C0DE
:1000900005900D92A036B107D9F723E0A0E6B3E0B2
:1000A00001C01D92A13DB207E1F70E941D020C9410
:1000B000A0050C940000CF93DF9300D0CDB7DEB73E
:1000C0000E94F80466E070E00E947E044AE0BE01EF
:1000D0006F5F7F4F01960E94080589810F900F90F6
:1000E000DF91CF9108951F920F920FB60F921124B6
:1000F0008F939F93809161038F5F809361039091B1
:1001000060039F5F90936003823048F01092610318
:1001100080916A03882319F083B1806283B980914A
:1001200060038830F0F010926003809165038130A5
:1001300019F483B1816083B980916603813019F429
:1001400083B1826083B980916703813019F483B1F0
:10015000846083B980916803813019F483B1886029
:1001600083B99F918F910F900FBE0F901F9018959C
:1001700084B5826084BD85B5856085BDEEE6F0E01E
:1001800080818260808382EC87BD0895E1E8F0E0A1
:10019000808188608083808184608083EFE6F0E0E6
:1001A00080818260808381E19AE7909389008093C7
:1001B000880008951F920F920FB60F9211248F930B
:1001C00080916903882319F083B1806283B98F918C
:1001D0000F900FBE0F901F90189510926B03109206
:1001E0006A0310926903ECE6F3E011821082E5E6FF
:1001F000F3E0108211821282138285B18F7D85B95E
:1002000085B18F7E85B985B1877F85B985B18B7FB3
:1002100085B985B18D7F85B985B18E7F85B9089502
:100220009093C5008093C40088E98093C100109228
:1002300090031092910310926E0310926F03089531
:1002400087E690E00E9410018FE384B9EBE6F0E0CE
:10025000808180688083E8E6F0E08081816080832F
:100260000E94C6000E94B80008951F920F920FB618
:100270000F9211248F939F93EF93FF938091C60069
:10028000E0919103EF5FEF71E09391039091900300
:10029000F0E0EE56FC4F8083FF91EF919F918F919C
:1002A0000F900FBE0F901F9018951F920F920FB6D0
:1002B0000F9211248F939F93EF93FF9390916F036D
:1002C00080916E03981769F0E0916E03EF5FEF7114
:1002D000E0936E03F0E0E059FC4F80818093C6000C
:1002E00005C0E1ECF0E080818F7D8083FF91EF918C
:1002F0009F918F910F900FBE0F901F9018950FC078
:1003000080916203909163030196909363038093BD
:100310006203019621F4109263031092620390919C
:10032000910380919003981759F3E0919003EF5F48
:10033000EF71E0939003F0E0EE56FC4F808108955A
:1003400020916F032F5F2F7190916E032917E1F3B6
:10035000E22FF0E0E059FC4F808320936F03E1EC43
:10036000F0E08081806280830895EF92FF920F9386
:100370001F93CF937C01C0E001C0CF5F87010C0FBA
:10038000111D0E947F01F80180838A30B1F7CF5F91
:100390008083F701EC0FF11D1082CF911F910F9117
:1003A000FF90EF900895CF93DF93EC012FEF80E75C
:1003B00092E0215080409040E1F700C0000003C06F
:1003C00021960E94A00188818111FACF2FEF80E74A
:1003D00092E0215080409040E1F700C00000DF91A2
:1003E000CF9108951F920F920FB60F9211242F9361
:1003F0003F934F935F936F937F938F939F93AF93AD
:10040000BF93EF93FF931F9907C081E0809364032C
:1004100089E091E00E94D301FF91EF91BF91AF91EC
:100420009F918F917F916F915F914F913F912F910C
:100430000F900FBE0F901F901895CF93DF93CDB7FD
:10044000DEB728970FB6F894DEBF0FBECDBF0E946F
:10045000200178941092D00380916403882329F0BE
:1004600081E08093D00310926403E091D0038E2F3B
:1004700090E08830910508F099C1FC01EC5CFF4FD9
:100480000C94920483E291E00E94D3018CE491E009
:100490000E94D3010E947F018A30E1F780916203BC
:1004A000909163030E94FD0481E891E00E94D301D2
:1004B0002FEF89E698E1215080409040E1F700C09D
:1004C00000008CE891E00E94D3014AE062EB73E007
:1004D00084E090E00E94080582EB93E00E94D30143
:1004E0008FEB91E00E94D3014AE062EB73E08CE075
:1004F00090E00E94080582EB93E00E94D30188EE11
:1005000091E00E94D30181E08093D003A5CF0E94A7
:10051000ED0010E00CC0E12EF12C0E945B00E1E048
:10052000F0E0EC0FFD1FEE0DFF1D80831F5F143008
:1005300090F3CE0101960E94E403809104018111A1
:1005400010C01CC0822F90E0E1E0F0E0EC0FFD1F36
:10055000E80FF91F3081FC01EE54FC4F30832F5F10
:1005600001C020E0243070F31092B70382EB93E0D7
:100570000E94D30181E192E00E94D30182E0809346
:10058000D0036ACF80916B038C3020F087E080939A
:10059000D00362CF93E09093D0038F5F80936B037F
:1005A0005BCF87E292E00E94D30180916B034AE027
:1005B00062EB73E090E00E94080582EB93E00E94FA
:1005C000D30184E292E00E94D301ECE6F3E01182D1
:1005D000108226C08EE392E00E94D301EFEFF1EE8D
:1005E00024E0E150F0402040E1F700C0000082EB41
:1005F00093E00E94B50180E010C0E82FF0E0EE54D7
:10060000FC4F90819153963018F48F5F10E005C035
:1006100089E692E00E94D30103C0843070F301C0E8
:1006200011E01111D7CF20E00EC0822F90E0FC0125
:10063000EE54FC4F3081E5E0F0E0EC0FFD1FE80FD9
:10064000F91F30832F5F243080F384E08093D00340
:1006500003CFE5E6F3E0108211821282138285B1A6
:100660008E7F85B985B18D7F85B985B18B7F85B941
:1006700085B1877F85B9CE0105960E94F5038093E9
:100680006C0390936D03843020F086E08093D00358
:10069000E3CE85E08093D003DFCE8BE992E00E9429
:1006A000D3010CE613E0F80180814AE062EB73E0CD
:1006B00090E00E94080582EB93E00E94D3018DEA4E
:1006C00092E00E94D3018BE992E00E94D301F801ED
:1006D00081814AE062EB73E090E00E94080582EBC2
:1006E00093E00E94D30180EE92E00E94D30180E06B
:1006F0002DC090916C038917C0F4813051F028F01F
:10070000823059F0833069F020C095B1916095B97D
:100710001CC095B1926095B918C095B1946095B917
:1007200014C095B1986095B910C020916D0330E068
:10073000482F50E0BA01691B7109621773072CF446
:10074000FA01EB59FC4F91E090838F5F843088F27F
:1007500082E08093D00380CEE5E6F3E01082118240
:100760001282138285B18E7F85B985B18D7F85B95F
:1007700085B18B7F85B985B1877F85B981E080930D
:1007800069038BEF92E00E94D30188E08093D0034D
:1007900063CE81E080936A038DE293E00E94D301EF
:1007A00088E08093D00358CE0E947F01809164033B
:1007B0008823D1F3FFEF29E688E1F1502040804003
:1007C000E1F700C0000048CEBC0190E00BC0292F2B
:1007D00030E0FB01E20FF31F4081F901EB5FFE4FB8
:1007E00040839F5F943098F30895CF93DF93CDB704
:1007F000DEB728970FB6F894DEBF0FBECDBFB0E0CE
:10080000A0E040E019C0242F30E0F901EB5FFE4F7B
:100810005081E1E0F0E0EC0FFD1FE20FF31F508389
:10082000FC01E20FF31F5081E5E0F0E0EC0FFD1F4B
:10083000E20FF31F50834F5F443028F320E020C0C5
:10084000422F50E0FC01E40FF51F6081E1E0F0E091
:10085000EC0FFD1FE40FF51F3081631310C0E1E0C2
:10086000F0E0EC0FFD1FE40FF51F3FEF3083E5E0F4
:10087000F0E0EC0FFD1FE40FF51F3083BF5F2F5F2B
:100880002430F0F240E02DC0E5E0F0E0EC0FFD1F79
:10089000E40FF11D20812F3F01F522C0622F70E08F
:1008A000E1E0F0E0EC0FFD1FE60FF71F30813F3F66
:1008B00091F0FC01E40FF11D508135130CC042177B
:1008C00051F0E1E0F0E0EC0FFD1FE60FF71F2FEF16
:1008D0002083AF5F05C02F5F01C020E02430F0F21D
:1008E0004F5F443088F28B2F9A2F28960FB6F894DA
:1008F000DEBF0FBECDBFDF91CF91089597FB072ECE
:1009000016F4009407D077FD09D00E94980407FCE4
:1009100005D03EF4909581959F4F0895709561950F
:100920007F4F0895EE0FFF1F0590F491E02D09947D
:10093000AA1BBB1B51E107C0AA1FBB1FA617B70705
:1009400010F0A61BB70B881F991F5A95A9F7809521
:100950009095BC01CD0108958F929F92AF92BF9266
:10096000CF92DF92EF92FF92CF93DF93EC016881F9
:1009700079818A819B81611571058105910521F439
:1009800064E279ED8BE597E02DE133EF41E050E053
:100990000E943D0549015A019B01AC01A7EAB1E45F
:1009A0000E945C056B017C01ACEEB4EFA5019401E3
:1009B0000E946A05DC01CB018C0D9D1DAE1DBF1D83
:1009C000B7FF03C00197A109B04888839983AA8320
:1009D000BB839F77DF91CF91FF90EF90DF90CF9017
:1009E000BF90AF909F908F9008950E94AC0408959F
:1009F00080E091E00E94AC040895A0E0B0E0809314
:100A0000000190930101A0930201B09303010895A6
:100A1000BB274A3031F4992322F4BDE290958195A9
:100A20009F4F0C941405BB27FB015527AA27880F5D
:100A3000991FAA1FA41710F0A41B83955051B9F752
:100A4000A05DAA3308F0A95DA193009779F7B111D1
:100A5000B1931192CB010C942D05DC01FC01672FA1
:100A600071917723E1F7329704C07C916D93708385
:100A70006291AE17BF07C8F30895052E97FB1EF4C9
:100A800000940E94540557FD07D00E946F0507FC93
:100A900003D04EF40C945405509540953095219513
:100AA0003F4F4F4F5F4F089590958095709561959A
:100AB0007F4F8F4F9F4F08950E949105A59F900DE6
:100AC000B49F900DA49F800D911D11240895B7FF30
:100AD0000C945C050E945C05821B930B0895A1E2B7
:100AE0001A2EAA1BBB1BFD010DC0AA1FBB1FEE1FA8
:100AF000FF1FA217B307E407F50720F0A21BB30BF3
:100B0000E40BF50B661F771F881F991F1A9469F76E
:100B100060957095809590959B01AC01BD01CF01CA
:100B20000895A29FB001B39FC001A39F700D811DC6
:100B30001124911DB29F700D811D1124911D0895E6
:040B4000F894FFCF57
:100B44000100000001FF0000005468652067616D2A
:100B54006520686173206265656E207265736574D3
:100B64002E0A0057656C636F6D6520746F2074687E
:100B74006520617765736F6D652067616D65204DD4
:100B840041535445524D494E44210A00596F752032
:100B940077696C6C2073656E6420796F7520677556
:100BA400657373207573696E672074686520746556
:100BB400726D696E616C2E20547279206974210AF9
:100BC40000476F6F64206A6F62210A00596F7520B5
:100BD40077696C6C206861766520746F2067756531
:100BE40073732074686520636F7272656374206325
:100BF4006F6D62696E6174696F6E206F662000208C
:100C04006E756D62657273206265747765656E20BA
:100C14003120616E6420362E0A596F752077696C15
:100C24006C20686176652000207475726E73207480
:100C34006F2066696E642074686520636F727265E4
:100C4400637420636F6D62696E6174696F6E2E0ADE
:100C5400002069732074686520736563726574206D
:100C6400636F64652E0A00596F752068617665208C
:100C740072656163686564207475726E2000506CDF
:100C84006561736520656E74657220796F75722075
:100C94006775657373206C696B6520746869733A52
:100CA400202731323334270A00596F757220677553
:100CB4006573732068617320746F206265206265B8
:100CC400747765656E203120616E6420362C207443
:100CD400727920616761696E2E0A00596F75206808
:100CE4006176652067756573736564200020776994
:100CF40074682074686520636F7272656374206E13
:100D0400756D6265722061742074686520636F720A
:100D14007265637420706F736974696F6E2E0A0054
:100D240020776974682074686520636F72726563E4
:100D340074206E756D6265722E0A00596F752057A6
:100D44004F4E212054727920616761696E20627967
:100D5400207072657373696E6720746865207265AC
:100D640073657420627574746F6E2E0A00596F7502
:100D7400206C6F73742E2054727920616761696EE0
:100D8400206279207072657373696E672074686578
:100D940020726573657420627574746F6E2E0A0018
:00000001FF
