S01200006D61737465726D696E642E73726563DE
S11300000C943C000C9459000C9459000C94BF01BE
S11300100C9459000C9459000C9459000C945900F8
S11300200C9459000C9459000C9459000C94AB0096
S11300300C9459000C9459000C9488000C945900A9
S11300400C9459000C9459000C9402010C94220154
S11300500C9459000C9459000C9459000C945900B8
S11300600C9459000C9459000F0250028B029A020E
S1130070FA02470374037F0311241FBECFEFD8E0B5
S1130080DEBFCDBF13E0A0E0B1E0E4EAFAE002C0D5
S113009005900D92A837B107D9F723E0A8E7B3E09C
S11300A001C01D92A53EB207E1F70E94EA010C943B
S11300B050050C94000080917803909179030E947C
S11300C0AD040895CF93DF9300D0CDB7DEB70E947F
S11300D0A80466E070E00E942E044AE0BE016F5F4F
S11300E07F4F01960E94B80489810F900F90DF9191
S11300F0CF91089584B5826084BD85B5836085BD44
S1130100EEE6F0E080818260808382E087BD08951E
S11301101F920F920FB60F9211248F9383B18160B7
S113012083B98F910F900FBE0F901F901895E1E83F
S1130130F0E0808188608083808184608083EFE642
S1130140F0E080818260808381E19AE79093890066
S11301508093880008951F920F920FB60F92112476
S11301608F9380917F03882319F083B1806283B9D0
S11301708F910F900FBE0F901F90189510928103CE
S11301801092800310927F03EBE7F3E01082118258
S11301901282138285B18F7D85B985B18F7E85B931
S11301A085B1877F85B985B18B7F85B985B18D7F11
S11301B085B985B18E7F85B908959093C5008093E4
S11301C0C40088E98093C1001092A4031092A5038F
S11301D01092820310928303089587E690E00E94B0
S11301E0DD008FE384B9EBE6F0E0808180688083F2
S11301F0E8E6F0E08081816080830E9497000E949D
S11302007A0008951F920F920FB60F9211248F93C4
S11302109F93EF93FF938091C600E091A503EF5F56
S1130220EF71E093A5039091A403F0E0EA55FC4F2D
S11302308083FF91EF919F918F910F900FBE0F904C
S11302401F9018951F920F920FB60F9211248F933F
S11302509F93EF93FF939091830380918203981768
S113026069F0E0918203EF5FEF71E0938203F0E0C5
S1130270EC57FC4F80818093C60005C0E1ECF0E0B0
S113028080818F7D8083FF91EF919F918F910F905B
S11302900FBE0F901F9018950FC080917803909116
S11302A0790301969093790380937803019621F45E
S11302B010927903109278039091A5038091A4037E
S11302C0981759F3E091A403EF5FEF71E093A4034F
S11302D0F0E0EA55FC4F80810895209183032F5F5D
S11302E02F71909182032917E1F3E22FF0E0EC578C
S11302F0FC4F808320938303E1ECF0E080818062F3
S113030080830895EF92FF920F931F93CF937C0104
S1130310C0E001C0CF5F87010C0F111D0E944C018A
S1130320F80180838A30B1F7CF5F8083F701EC0F47
S1130330F11D1082CF911F910F91FF90EF900895BE
S1130340CF93DF93EC012FEF80E792E021508040C0
S11303509040E1F700C0000003C021960E946D01A7
S113036088818111FACF2FEF80E792E021508040FD
S11303709040E1F700C00000DF91CF9108951F92F3
S11303800F920FB60F9211242F933F934F935F93C5
S11303906F937F938F939F93AF93BF93EF93FF9349
S11303A01F9907C081E080937A0389E091E00E945D
S11303B0A001FF91EF91BF91AF919F918F917F9198
S11303C06F915F914F913F912F910F900FBE0F90BE
S11303D01F901895CF93DF93CDB7DEB728970FB64C
S11303E0F894DEBF0FBECDBF0E94ED00789410924A
S11303F0E40380917A03882329F081E08093E40365
S113040010927A03E091E4038E2F90E088309105F6
S113041008F080C1FC01EC5CFF4F0C9442048FE2B5
S113042091E00E94A00189E591E00E94A0010E9450
S11304304C018A30E1F70E945B008FE891E00E9452
S1130440A0012FEF89E698E1215080409040E1F728
S113045000C000008BE991E00E94A0014AE066EC34
S113046073E084E090E00E94B80486EC93E00E947C
S1130470A0018EEC91E00E94A0014AE066EC73E0DA
S11304808CE090E00E94B80486EC93E00E94A00106
S113049087EF91E00E94A00181E08093E403A9CF5B
S11304A00E94BE0010E00CC0C12ED12C0E9462003C
S11304B0E1E0F0E0EC0FFD1FEC0DFD1D80831F5FFC
S11304C0143090F3CE0101960E94940380910401AC
S11304D0811110C01CC0822F90E0E1E0F0E0EC0F2D
S11304E0FD1FE80FF91F3081FC01EA53FC4F3083F4
S11304F02F5F01C020E0243070F31092CB0386EC10
S113050093E00E94A00181E292E00E94A00182E0B7
S11305108093E4036ECF809181038C3020F087E0D8
S11305208093E40366CF93E09093E4038F5F80931A
S113053081035FCF88E392E00E94A0018091810350
S11305404AE066EC73E090E00E94B80486EC93E025
S11305500E94A00184E392E00E94A001F12C00E03B
S113056030C0E82FF0E0EA53FC4F10828F5F01C0E7
S113057080E08E31B0F38FE492E00E94A0012FEF6F
S113058081EE94E0215080409040E1F700C00000EB
S113059086EC93E00E94820180E010C0E82FF0E036
S11305A0EA53FC4F90819153963018F48F5F10E01A
S11305B005C08BE792E00E94A00103C0843070F371
S11305C001C011E01111D4CF20E00EC0822F90E0C1
S11305D0FC01EA53FC4F3081E5E0F0E0EC0FFD1F35
S11305E0E80FF91F30832F5F243080F384E0809379
S11305F0E403FFCEEBE7F3E0108211821282138250
S113060085B18E7F85B985B18D7F85B985B18B7FA5
S113061085B985B1877F85B9CE0105960E94A5036A
S1130620082FF92E843020F086E08093E403E1CE95
S113063085E08093E403DDCE8017C0F4813051F06F
S113064028F0823059F0833069F01FC095B1916071
S113065095B91BC095B1926095B917C095B19460D6
S113066095B913C095B1986095B90FC02F2D30E09E
S1130670482F50E0BA01601B7109621773072CF40C
S1130680FA01E558FC4F91E090838F5F01C080E050
S1130690843090F28EEA92E00E94A0014AE066EC77
S11306A073E0802F90E00E94B80486EC93E00E94EF
S11306B0A00180EC92E00E94A0018EEA92E00E94E8
S11306C0A0014AE066EC73E08F2D90E00E94B8042C
S11306D086EC93E00E94A00184EF92E00E94A001C6
S11306E082E08093E40385CE81E080937F0380E100
S11306F093E00E94A00188E08093E4037ACE81E035
S11307008093800383E493E00E94A00188E08093B7
S1130710E4036FCE2FEF89E698E1215080409040AA
S1130720E1F700C0000065CEBC0190E00BC0292FAA
S113073030E0FB01E20FF31F4081F901EB5FFE4F54
S113074040839F5F943098F30895CF93DF93CDB7A0
S1130750DEB728970FB6F894DEBF0FBECDBFB0E06A
S1130760A0E040E019C0242F30E0F901EB5FFE4F18
S11307705081E1E0F0E0EC0FFD1FE20FF31F508326
S1130780FC01E20FF31F5081E5E0F0E0EC0FFD1FE8
S1130790E20FF31F50834F5F443028F320E020C062
S11307A0422F50E0FC01E40FF51F6081E1E0F0E02E
S11307B0EC0FFD1FE40FF51F3081631310C0E1E05F
S11307C0F0E0EC0FFD1FE40FF51F3FEF3083E5E091
S11307D0F0E0EC0FFD1FE40FF51F3083BF5F2F5FC8
S11307E02430F0F240E02DC0E5E0F0E0EC0FFD1F16
S11307F0E40FF11D20812F3F01F522C0622F70E02C
S1130800E1E0F0E0EC0FFD1FE60FF71F30813F3F02
S113081091F0FC01E40FF11D508135130CC0421717
S113082051F0E1E0F0E0EC0FFD1FE60FF71F2FEFB2
S11308302083AF5F05C02F5F01C020E02430F0F2B9
S11308404F5F443088F28B2F9A2F28960FB6F89476
S1130850DEBF0FBECDBFDF91CF91089597FB072E6A
S113086016F4009407D077FD09D00E94480407FCD1
S113087005D03EF4909581959F4F089570956195AC
S11308807F4F0895EE0FFF1F0590F491E02D09941A
S1130890AA1BBB1B51E107C0AA1FBB1FA617B707A2
S11308A010F0A61BB70B881F991F5A95A9F78095BE
S11308B09095BC01CD0108958F929F92AF92BF9203
S11308C0CF92DF92EF92FF92CF93DF93EC01688196
S11308D079818A819B81611571058105910521F4D6
S11308E064E279ED8BE597E02DE133EF41E050E0F0
S11308F00E94ED0449015A019B01AC01A7EAB1E44D
S11309000E940C056B017C01ACEEB4EFA5019401CF
S11309100E941A05DC01CB018C0D9D1DAE1DBF1D6F
S1130920B7FF03C00197A109B04888839983AA83BC
S1130930BB839F77DF91CF91FF90EF90DF90CF90B3
S1130940BF90AF909F908F9008950E945C0408958B
S113095080E091E00E945C040895A0E0B0E0809300
S1130960000190930101A0930201B0930301089543
S1130970BB274A3031F4992322F4BDE29095819546
S11309809F4F0C94C404BB27FB015527AA27880F4B
S1130990991FAA1FA41710F0A41B83955051B9F7EF
S11309A0A05DAA3308F0A95DA193009779F7B1116E
S11309B0B1931192CB010C94DD04DC01FC01672F8F
S11309C071917723E1F7329704C07C916D93708322
S11309D06291AE17BF07C8F30895052E97FB1EF466
S11309E000940E94040557FD07D00E941F0507FCD0
S11309F003D04EF40C940405509540953095219500
S1130A003F4F4F4F5F4F0895909580957095619536
S1130A107F4F8F4F9F4F08950E944105A59F900DD2
S1130A20B49F900DA49F800D911D11240895B7FFCC
S1130A300C940C050E940C05821B930B0895A1E2F3
S1130A401A2EAA1BBB1BFD010DC0AA1FBB1FEE1F44
S1130A50FF1FA217B307E407F50720F0A21BB30B8F
S1130A60E40BF50B661F771F881F991F1A9469F70B
S1130A7060957095809590959B01AC01BD01CF0167
S1130A800895A29FB001B39FC001A39F700D811D63
S1130A901124911DB29F700D811D1124911D089583
S1070AA0F894FFCFF4
S1130AA40100000001FF0000005468652067616DC7
S1130AB46520686173206265656E20726573657470
S1130AC42E0D0A002D2D2D2D2D2D2D2D2D200057CD
S1130AD4656C636F6D6520746F207468652061773D
S1130AE465736F6D652067616D65204D4153544591
S1130AF4524D494E44210D0A00596F752077696C93
S1130B046C2073656E6420796F75206775657373E3
S1130B14207573696E6720746865207465726D69E5
S1130B246E616C2E20547279206974210D0A004779
S1130B346F6F64206A6F62210D0A00596F75207704
S1130B44696C6C206861766520746F2067756573C1
S1130B54732074686520636F727265637420636FB5
S1130B646D62696E6174696F6E206F662000206E19
S1130B74756D62657273206265747765656E203184
S1130B8420616E6420362E0A596F752077696C6C67
S1130B9420686176652000207475726E7320746F0A
S1130BA42066696E642074686520636F727265637D
S1130BB47420636F6D62696E6174696F6E2E0D0AC1
S1130BC400206973207468652073656372657420FA
S1130BD4636F64652E0D0A00596F7520686176652C
S1130BE42072656163686564207475726E200050B8
S1130BF46C6561736520656E74657220796F7572B6
S1130C04206775657373206C696B652074686973F8
S1130C143A202731323334270D0A00596F75722074
S1130C2467756573732068617320746F206265202F
S1130C346265747765656E203120616E6420362C9C
S1130C442074727920616761696E2E0D0A00596FF0
S1130C547520686176652067756573736564200023
S1130C6420776974682074686520636F72726563A1
S1130C7474206E756D6265722061742074686520D9
S1130C84636F727265637420706F736974696F6ED5
S1130C942E0D0A0020776974682074686520636FD8
S1130CA47272656374206E756D6265722E0D0A002E
S1130CB4596F7520574F4E21205472792061676112
S1130CC4696E206279207072657373696E6720742B
S1130CD4686520726573657420627574746F6E2E12
S1130CE40D0A00596F75206C6F73742E2054727939
S1130CF420616761696E206279207072657373691B
S1130D046E672074686520726573657420627574F7
S10B0D14746F6E2E0D0A00003D
S9030000FC
