S01200006D61737465726D696E642E73726563DE
S11300000C943C000C9459000C9459000C942B0251
S11300100C9459000C9459000C9459000C945900F8
S11300200C9459000C9459000C9459000C9413012D
S11300300C9459000C9459000C9473000C945900BE
S11300400C9459000C9459000C946E010C948E017C
S11300500C9459000C9459000C9459000C945900B8
S11300600C9459000C9459007B02C002FB020A0351
S113007062038803EA03070411241FBECFEFD8E00C
S1130080DEBFCDBF13E0A0E0B1E0E8EDFBE002C0CD
S113009005900D92A036B107D9F723E0A0E6B3E0AE
S11300A001C01D92A73DB207E1F70E9456020C94CD
S11300B0EA050C940000CF93DF9300D0CDB7DEB7F0
S11300C00E94420566E070E00E94C8044AE0BE0156
S11300D06F5F7F4F01960E94520589810F900F90A8
S11300E0DF91CF9108951F920F920FB60F921124B2
S11300F08F939F93809161038F5F809361039091AD
S113010060039F5F90936003823048F01092610314
S113011080916F03882319F083B1806283B9809141
S11301206003883008F456C01092600380916A031B
S11301308130A1F480916203813081F4809166035F
S1130140811107C085B1816085B981E08093660320
S113015005C085B18E7F85B91092660380916B03CB
S1130160813081F480916703811107C085B1826079
S113017085B981E08093670305C085B18D7F85B91A
S11301801092670380916C03813081F4809168033D
S1130190811107C085B1846085B981E080936803CB
S11301A005C085B18B7F85B91092680380916D037A
S11301B0813081F480916903811107C085B1886021
S11301C085B981E08093690305C085B1877F85B9CE
S11301D0109269039F918F910F900FBE0F901F9003
S11301E0189584B5826084BD85B5856085BDEEE6CD
S11301F0F0E080818260808382EC87BD0895E1E82D
S1130200F0E0808188608083808184608083EFE671
S1130210F0E080818260808381E19AE79093890095
S11302208093880008951F920F920FB60F921124A5
S11302308F9380916E03882319F083B1806283B910
S11302408F910F900FBE0F901F901895109270030E
S113025010926F0310926E03E1E7F3E011821082B3
S1130260EAE6F3E0108211821282138285B18F7D57
S113027085B985B18F7E85B985B1877F85B985B10B
S11302808B7F85B985B18D7F85B985B18E7F85B921
S113029008959093C5008093C40088E98093C100B9
S11302A010929603109297031092740310927503A0
S11302B0089587E690E00E9449018FE384B9EBE654
S11302C0F0E0808180688083E8E6F0E080818160EE
S11302D080830E94FF000E94F10008951F920F92F4
S11302E00FB60F9211248F939F93EF93FF938091F6
S11302F0C600E0919703EF5FEF71E093970390914D
S11303009603F0E0E856FC4F8083FF91EF919F91B4
S11303108F910F900FBE0F901F9018951F920F9200
S11303200FB60F9211248F939F93EF93FF939091A5
S1130330750380917403981769F0E0917403EF5F7B
S1130340EF71E0937403F0E0EA58FC4F80818093EE
S1130350C60005C0E1ECF0E080818F7D8083FF91D1
S1130360EF919F918F910F900FBE0F901F90189552
S11303700FC080916303909164030196909364038A
S113038080936303019621F4109264031092630333
S11303909091970380919603981759F3E0919603EF
S11303A0EF5FEF71E0939603F0E0E856FC4F808135
S11303B00895209175032F5F2F719091740329176D
S11303C0E1F3E22FF0E0EA58FC4F808320937503B9
S11303D0E1ECF0E08081806280830895EF92FF92E7
S11303E00F931F93CF937C01C0E001C0CF5F8701BF
S11303F00C0F111D0E94B801F80180838A30B1F7F7
S1130400CF5F8083F701EC0FF11D1082CF911F9114
S11304100F91FF90EF900895CF93DF93EC012FEFAE
S113042080E792E0215080409040E1F700C0000056
S113043003C021960E94D90188818111FACF2FEF40
S113044080E792E0215080409040E1F700C0000036
S1130450DF91CF9108951F920F920FB60F9211243E
S11304602F933F934F935F936F937F938F939F93B8
S1130470AF93BF93EF93FF931F9907C081E08093DD
S1130480650388E091E00E940C02FF91EF91BF9117
S1130490AF919F918F917F916F915F914F913F9118
S11304A02F910F900FBE0F901F901895CF93DF934D
S11304B0CDB7DEB728970FB6F894DEBF0FBECDBF19
S11304C00E94590178941092D60380916503882381
S11304D029F081E08093D60310926503E091D6035E
S11304E08E2F90E08830910508F0AEC1FC01EC5CE1
S11304F0FF4F0C94DC0482E291E00E940C028BE436
S113050091E00E940C020E94B8018A30E1F78091C8
S11305106303909164030E94470580E891E00E9480
S11305200C022FEF89E698E1215080409040E1F7DA
S113053000C000008BE891E00E940C024AE068EBE6
S113054073E084E090E00E94520588EB93E00E94FF
S11305500C028EEB91E00E940C024AE068EB73E01F
S11305608CE090E00E94520588EB93E00E940C021C
S113057087EE91E00E940C0281E08093D603A5CF20
S11305800E94260110E00CC0E12EF12C0E945B00B9
S1130590E1E0F0E0EC0FFD1FEE0DFF1D80831F5F17
S11305A0143090F3CE0101960E942E0480917303BF
S11305B0811110C01CC0822F90E0E1E0F0E0EC0F4C
S11305C0FD1FE80FF91F3081FC01E854FC4F308314
S11305D02F5F01C020E0243070F31092BD0388EB3C
S11305E093E00E940C0280E192E00E940C0282E0FF
S11305F08093D6036ACF809170038C3020F087E01B
S11306008093D60362CF93E09093D6038F5F809359
S113061070035BCF86E292E00E940C02809170032B
S11306204AE068EB73E090E00E94520588EB93E0A7
S11306300E940C0283E292E00E940C02E1E7F3E0E4
S11306401182108226C08DE392E00E940C02EFEF2B
S1130650F1EE24E0E150F0402040E1F700C000005A
S113066088EB93E00E94EE0180E010C0E82FF0E0F8
S1130670E854FC4F90819153963018F48F5F10E04A
S113068005C088E692E00E940C0203C0843070F337
S113069001C011E01111D7CF20E00EC0822F90E0ED
S11306A0FC01E854FC4F3081E5E0F0E0EC0FFD1F65
S11306B0E80FF91F30832F5F243080F384E08093A8
S11306C0D60303CF10926203EAE6F3E010821182AC
S11306D01282138285B18E7F85B985B18D7F85B9EC
S11306E085B18B7F85B985B1877F85B9CE010596A4
S11306F00E943F048093710390937203843020F02E
S113070086E08093D603E1CE85E08093D603DDCEE8
S11307108AE992E00E940C0201E713E0F80180816B
S11307204AE068EB73E090E00E94520588EB93E0A6
S11307300E940C028CEA92E00E940C028AE992E088
S11307400E940C02F80181814AE068EB73E090E0BA
S11307500E94520588EB93E00E940C028FED92E018
S11307600E940C0280E02DC0909171038917C0F49F
S1130770813051F028F0823059F0833069F020C084
S113078095B1916095B91CC095B1926095B918C0A6
S113079095B1946095B914C095B1986095B910C09D
S11307A02091720330E0482F50E0BA01691B7109AF
S11307B0621773072CF4FA01E659FC4F91E0908319
S11307C08F5F843088F281E08093620382E08093BB
S11307D0D6037BCEEAE6F3E0108211821282138202
S11307E085B18E7F85B985B18D7F85B985B18B7FC4
S11307F085B985B1877F85B981E080936E038AEFDF
S113080092E00E940C0288E08093D6035ECEEAE672
S1130810F3E0108211821282138285B18E7F85B932
S113082085B18D7F85B985B18B7F85B985B1877F8A
S113083085B981E080936F038CE293E00E940C02FF
S113084088E08093D60341CEFFEF29E688E1F1509A
S113085020408040E1F700C0000037CEBC0190E0AA
S11308600BC0292F30E0FB01E20FF31F4081F90197
S1130870EC5FFE4F40839F5F943098F30895CF93CD
S1130880DF93CDB7DEB728970FB6F894DEBF0FBE5F
S1130890CDBFB0E0A0E040E019C0242F30E0F90162
S11308A0EC5FFE4F5081E1E0F0E0EC0FFD1FE20F42
S11308B0F31F5083FC01E20FF31F5081E5E0F0E0E9
S11308C0EC0FFD1FE20FF31F50834F5F443028F3FA
S11308D020E020C0422F50E0FC01E40FF51F6081AE
S11308E0E1E0F0E0EC0FFD1FE40FF51F308163132E
S11308F010C0E1E0F0E0EC0FFD1FE40FF51F3FEF47
S11309003083E5E0F0E0EC0FFD1FE40FF51F3083CA
S1130910BF5F2F5F2430F0F240E02DC0E5E0F0E04F
S1130920EC0FFD1FE40FF11D20812F3F01F522C0C4
S1130930622F70E0E1E0F0E0EC0FFD1FE60FF71F1F
S113094030813F3F91F0FC01E40FF11D50813513DC
S11309500CC0421751F0E1E0F0E0EC0FFD1FE60F90
S1130960F71F2FEF2083AF5F05C02F5F01C020E08A
S11309702430F0F24F5F443088F28B2F9A2F289660
S11309800FB6F894DEBF0FBECDBFDF91CF910895AF
S113099097FB072E16F4009407D077FD09D00E9428
S11309A0E20407FC05D03EF4909581959F4F08958D
S11309B0709561957F4F0895EE0FFF1F0590F49198
S11309C0E02D0994AA1BBB1B51E107C0AA1FBB1F42
S11309D0A617B70710F0A61BB70B881F991F5A95C7
S11309E0A9F780959095BC01CD0108958F929F92AF
S11309F0AF92BF92CF92DF92EF92FF92CF93DF93A9
S1130A00EC01688179818A819B8161157105810579
S1130A10910521F464E279ED8BE597E02DE133EF64
S1130A2041E050E00E94870549015A019B01AC0155
S1130A30A7EAB1E40E94A6056B017C01ACEEB4EF19
S1130A40A50194010E94B405DC01CB018C0D9D1D10
S1130A50AE1DBF1DB7FF03C00197A109B04888832D
S1130A609983AA83BB839F77DF91CF91FF90EF9007
S1130A70DF90CF90BF90AF909F908F9008950E9489
S1130A80F604089580E091E00E94F6040895A0E041
S1130A90B0E08093000190930101A0930201B09310
S1130AA003010895BB274A3031F4992322F4BDE2AF
S1130AB0909581959F4F0C945E05BB27FB015527AC
S1130AC0AA27880F991FAA1FA41710F0A41B8395A7
S1130AD05051B9F7A05DAA3308F0A95DA19300971E
S1130AE079F7B111B1931192CB010C947705DC0124
S1130AF0FC01672F71917723E1F7329704C07C9151
S1130B006D9370836291AE17BF07C8F30895052EE5
S1130B1097FB1EF400940E949E0557FD07D00E9487
S1130B20B90507FC03D04EF40C949E0550954095EE
S1130B30309521953F4F4F4F5F4F08959095809585
S1130B40709561957F4F8F4F9F4F08950E94DB05ED
S1130B50A59F900DB49F900DA49F800D911D11240D
S1130B600895B7FF0C94A6050E94A605821B930B5B
S1130B700895A1E21A2EAA1BBB1BFD010DC0AA1FDA
S1130B80BB1FEE1FFF1FA217B307E407F50720F0F2
S1130B90A21BB30BE40BF50B661F771F881F991F6D
S1130BA01A9469F760957095809590959B01AC01B6
S1130BB0BD01CF010895A29FB001B39FC001A39FBF
S1130BC0700D811D1124911DB29F700D811D112482
S10B0BD0911D0895F894FFCF74
S1130BD801000000FF0000005468652067616D652E
S1130BE820686173206265656E2072657365742E72
S1130BF80A0057656C636F6D6520746F20746865AF
S1130C0820617765736F6D652067616D65204D415F
S1130C18535445524D494E44210A00596F75207763
S1130C28696C6C2073656E6420796F7520677565CF
S1130C387373207573696E672074686520746572B0
S1130C486D696E616C2E20547279206974210A00D2
S1130C58476F6F64206A6F62210A00596F752077A5
S1130C68696C6C206861766520746F20677565739C
S1130C78732074686520636F727265637420636F90
S1130C886D62696E6174696F6E206F662000206EF4
S1130C98756D62657273206265747765656E20315F
S1130CA820616E6420362E0A596F752077696C6C42
S1130CB820686176652000207475726E7320746FE5
S1130CC82066696E642074686520636F7272656358
S1130CD87420636F6D62696E6174696F6E2E0A00A9
S1130CE82069732074686520736563726574206372
S1130CF86F64652E0A00596F7520686176652072E5
S1130D08656163686564207475726E2000506C6553
S1130D1861736520656E74657220796F75722067DA
S1130D2875657373206C696B6520746869733A2000
S1130D382731323334270A00596F75722067756575
S1130D4873732068617320746F2062652062657410
S1130D587765656E203120616E6420362C207472AC
S1130D687920616761696E2E0A00596F7520686180
S1130D7876652067756573736564200020776974E8
S1130D88682074686520636F7272656374206E7579
S1130D986D6265722061742074686520636F727275
S1130DA865637420706F736974696F6E2E0A00200E
S1130DB8776974682074686520636F7272656374F8
S1130DC8206E756D6265722E0A00596F7520574F33
S1130DD84E212054727920616761696E20627920FE
S1130DE87072657373696E672074686520726573C1
S1130DF8657420627574746F6E2E0A00596F7520BD
S1130E086C6F73742E2054727920616761696E2047
S1130E186279207072657373696E672074686520DF
S1130E28726573657420627574746F6E2E0A00009F
S9030000FC
